{
  "_format": "hh-sol-artifact-1",
  "contractName": "DeliveryEscrow",
  "sourceName": "contracts/DeliveryEscrow.sol",
  "abi": [
    {
      "anonymous": false,
      "inputs": [
        {
          "indexed": true,
          "internalType": "uint256",
          "name": "jobId",
          "type": "uint256"
        },
        {
          "indexed": true,
          "internalType": "address",
          "name": "droneWallet",
          "type": "address"
        }
      ],
      "name": "DroneAssigned",
      "type": "event"
    },
    {
      "anonymous": false,
      "inputs": [
        {
          "indexed": true,
          "internalType": "uint256",
          "name": "jobId",
          "type": "uint256"
        },
        {
          "indexed": true,
          "internalType": "address",
          "name": "recipient",
          "type": "address"
        },
        {
          "indexed": true,
          "internalType": "address",
          "name": "feeWallet",
          "type": "address"
        },
        {
          "indexed": false,
          "internalType": "uint256",
          "name": "recipientAmount",
          "type": "uint256"
        },
        {
          "indexed": false,
          "internalType": "uint256",
          "name": "feeAmount",
          "type": "uint256"
        },
        {
          "indexed": false,
          "internalType": "uint256",
          "name": "droneAmount",
          "type": "uint256"
        }
      ],
      "name": "JobCompleted",
      "type": "event"
    },
    {
      "anonymous": false,
      "inputs": [
        {
          "indexed": true,
          "internalType": "uint256",
          "name": "jobId",
          "type": "uint256"
        },
        {
          "indexed": false,
          "internalType": "uint256",
          "name": "amount",
          "type": "uint256"
        }
      ],
      "name": "JobFunded",
      "type": "event"
    },
    {
      "anonymous": false,
      "inputs": [
        {
          "indexed": true,
          "internalType": "uint256",
          "name": "jobId",
          "type": "uint256"
        },
        {
          "indexed": true,
          "internalType": "address",
          "name": "poster",
          "type": "address"
        },
        {
          "indexed": false,
          "internalType": "string",
          "name": "details",
          "type": "string"
        },
        {
          "indexed": false,
          "internalType": "address",
          "name": "recipient",
          "type": "address"
        },
        {
          "indexed": false,
          "internalType": "address",
          "name": "feeWallet",
          "type": "address"
        },
        {
          "indexed": false,
          "internalType": "uint256",
          "name": "amount",
          "type": "uint256"
        }
      ],
      "name": "JobPosted",
      "type": "event"
    },
    {
      "inputs": [],
      "name": "FEE_WALLET",
      "outputs": [
        {
          "internalType": "address",
          "name": "",
          "type": "address"
        }
      ],
      "stateMutability": "view",
      "type": "function"
    },
    {
      "inputs": [
        {
          "internalType": "uint256",
          "name": "jobId",
          "type": "uint256"
        },
        {
          "internalType": "address",
          "name": "droneWallet",
          "type": "address"
        }
      ],
      "name": "assignDrone",
      "outputs": [],
      "stateMutability": "nonpayable",
      "type": "function"
    },
    {
      "inputs": [
        {
          "internalType": "uint256",
          "name": "jobId",
          "type": "uint256"
        }
      ],
      "name": "confirmDelivery",
      "outputs": [],
      "stateMutability": "nonpayable",
      "type": "function"
    },
    {
      "inputs": [],
      "name": "jobCount",
      "outputs": [
        {
          "internalType": "uint256",
          "name": "",
          "type": "uint256"
        }
      ],
      "stateMutability": "view",
      "type": "function"
    },
    {
      "inputs": [
        {
          "internalType": "uint256",
          "name": "",
          "type": "uint256"
        }
      ],
      "name": "jobs",
      "outputs": [
        {
          "internalType": "address",
          "name": "poster",
          "type": "address"
        },
        {
          "internalType": "address",
          "name": "recipient",
          "type": "address"
        },
        {
          "internalType": "address",
          "name": "feeWallet",
          "type": "address"
        },
        {
          "internalType": "address",
          "name": "droneWallet",
          "type": "address"
        },
        {
          "internalType": "string",
          "name": "details",
          "type": "string"
        },
        {
          "internalType": "uint256",
          "name": "amount",
          "type": "uint256"
        },
        {
          "internalType": "bool",
          "name": "funded",
          "type": "bool"
        },
        {
          "internalType": "bool",
          "name": "completed",
          "type": "bool"
        }
      ],
      "stateMutability": "view",
      "type": "function"
    },
    {
      "inputs": [
        {
          "internalType": "string",
          "name": "details",
          "type": "string"
        },
        {
          "internalType": "address",
          "name": "recipient",
          "type": "address"
        }
      ],
      "name": "postJob",
      "outputs": [
        {
          "internalType": "uint256",
          "name": "",
          "type": "uint256"
        }
      ],
      "stateMutability": "payable",
      "type": "function"
    }
  ],
  "bytecode": "6080604052348015600e575f5ffd5b50611cd08061001c5f395ff3fe608060405260043610610054575f3560e01c8063180aedf31461005857806344cd79481461009b5780634c5d8a0f146100c55780639440860c146100ef578063a544749214610117578063fd84cb9714610147575b5f5ffd5b348015610063575f5ffd5b5061007e60048036038101906100799190610fa2565b61016f565b6040516100929897969594939291906110a5565b60405180910390f35b3480156100a6575f5ffd5b506100af6102ce565b6040516100bc9190611128565b60405180910390f35b3480156100d0575f5ffd5b506100d96102e6565b6040516100e69190611141565b60405180910390f35b3480156100fa575f5ffd5b5061011560048036038101906101109190611184565b6102eb565b005b610131600480360381019061012c9190611223565b6104bd565b60405161013e9190611141565b60405180910390f35b348015610152575f5ffd5b5061016d60048036038101906101689190610fa2565b610964565b005b6001602052805f5260405f205f91509050805f015f9054906101000a900473ffffffffffffffffffffffffffffffffffffffff1690806001015f9054906101000a900473ffffffffffffffffffffffffffffffffffffffff1690806002015f9054906101000a900473ffffffffffffffffffffffffffffffffffffffff1690806003015f9054906101000a900473ffffffffffffffffffffffffffffffffffffffff1690806004018054610222906112ad565b80601f016020809104026020016040519081016040528092919081815260200182805461024e906112ad565b80156102995780601f1061027057610100808354040283529160200191610299565b820191905f5260205f20905b81548152906001019060200180831161027c57829003601f168201915b505050505090806005015490806006015f9054906101000a900460ff16908060060160019054906101000a900460ff16905088565b73670298e73c5e6735e1fdbed858be1d6a26db00b181565b5f5481565b5f60015f8481526020019081526020015f209050806006015f9054906101000a900460ff1661034f576040517f08c379a000000000000000000000000000000000000000000000000000000000815260040161034690611327565b60405180910390fd5b8060060160019054906101000a900460ff16156103a1576040517f08c379a00000000000000000000000000000000000000000000000000000000081526004016103989061138f565b60405180910390fd5b5f73ffffffffffffffffffffffffffffffffffffffff16816003015f9054906101000a900473ffffffffffffffffffffffffffffffffffffffff1673ffffffffffffffffffffffffffffffffffffffff1614610432576040517f08c379a0000000000000000000000000000000000000000000000000000000008152600401610429906113f7565b60405180910390fd5b81816003015f6101000a81548173ffffffffffffffffffffffffffffffffffffffff021916908373ffffffffffffffffffffffffffffffffffffffff1602179055508173ffffffffffffffffffffffffffffffffffffffff16837fd8913dc5a91dca638585e1f29f8ff62fb8e8f88b25f2031bd98b26b12a19d02360405160405180910390a3505050565b5f5f3411610500576040517f08c379a00000000000000000000000000000000000000000000000000000000081526004016104f79061145f565b60405180910390fd5b5f73ffffffffffffffffffffffffffffffffffffffff168273ffffffffffffffffffffffffffffffffffffffff160361056e576040517f08c379a0000000000000000000000000000000000000000000000000000000008152600401610565906114c7565b60405180910390fd5b3373ffffffffffffffffffffffffffffffffffffffff168273ffffffffffffffffffffffffffffffffffffffff16036105dc576040517f08c379a00000000000000000000000000000000000000000000000000000000081526004016105d39061152f565b60405180910390fd5b66038d7ea4c68000341015610626576040517f08c379a000000000000000000000000000000000000000000000000000000000815260040161061d90611597565b60405180910390fd5b5f5f815480929190610637906115e2565b91905055506040518061010001604052803373ffffffffffffffffffffffffffffffffffffffff1681526020018373ffffffffffffffffffffffffffffffffffffffff16815260200173670298e73c5e6735e1fdbed858be1d6a26db00b173ffffffffffffffffffffffffffffffffffffffff1681526020015f73ffffffffffffffffffffffffffffffffffffffff16815260200185858080601f0160208091040260200160405190810160405280939291908181526020018383808284375f81840152601f19601f8201169050808301925050505050505081526020013481526020016001151581526020015f151581525060015f5f5481526020019081526020015f205f820151815f015f6101000a81548173ffffffffffffffffffffffffffffffffffffffff021916908373ffffffffffffffffffffffffffffffffffffffff1602179055506020820151816001015f6101000a81548173ffffffffffffffffffffffffffffffffffffffff021916908373ffffffffffffffffffffffffffffffffffffffff1602179055506040820151816002015f6101000a81548173ffffffffffffffffffffffffffffffffffffffff021916908373ffffffffffffffffffffffffffffffffffffffff1602179055506060820151816003015f6101000a81548173ffffffffffffffffffffffffffffffffffffffff021916908373ffffffffffffffffffffffffffffffffffffffff160217905550608082015181600401908161086791906117f6565b5060a0820151816005015560c0820151816006015f6101000a81548160ff02191690831515021790555060e08201518160060160016101000a81548160ff0219169083151502179055509050503373ffffffffffffffffffffffffffffffffffffffff165f547f3ac7a9cede135ca75418ce7fd6e2cbe50bfe9e7dc51d5ca3e0a56916b8dbd37586868673670298e73c5e6735e1fdbed858be1d6a26db00b1346040516109189594939291906118ff565b60405180910390a35f547f9d25c5cf940eed311c45e5a0b4c7c8790a356d3c356453b76bb7e232db3f384a346040516109519190611141565b60405180910390a25f5490509392505050565b5f60015f8381526020019081526020015f209050806006015f9054906101000a900460ff166109c8576040517f08c379a00000000000000000000000000000000000000000000000000000000081526004016109bf90611327565b60405180910390fd5b8060060160019054906101000a900460ff1615610a1a576040517f08c379a0000000000000000000000000000000000000000000000000000000008152600401610a119061138f565b60405180910390fd5b805f015f9054906101000a900473ffffffffffffffffffffffffffffffffffffffff1673ffffffffffffffffffffffffffffffffffffffff163373ffffffffffffffffffffffffffffffffffffffff1614610aaa576040517f08c379a0000000000000000000000000000000000000000000000000000000008152600401610aa190611995565b60405180910390fd5b60018160060160016101000a81548160ff0219169083151502179055505f606460508360050154610adb91906119b3565b610ae59190611a21565b90505f6064600a8460050154610afb91906119b3565b610b059190611a21565b90505f81838560050154610b199190611a51565b610b239190611a51565b90505f846001015f9054906101000a900473ffffffffffffffffffffffffffffffffffffffff1673ffffffffffffffffffffffffffffffffffffffff1684604051610b6d90611ab1565b5f6040518083038185875af1925050503d805f8114610ba7576040519150601f19603f3d011682016040523d82523d5f602084013e610bac565b606091505b5050905080610bf0576040517f08c379a0000000000000000000000000000000000000000000000000000000008152600401610be790611b0f565b60405180910390fd5b5f856002015f9054906101000a900473ffffffffffffffffffffffffffffffffffffffff1673ffffffffffffffffffffffffffffffffffffffff1683604051610c3890611ab1565b5f6040518083038185875af1925050503d805f8114610c72576040519150601f19603f3d011682016040523d82523d5f602084013e610c77565b606091505b5050905080610cbb576040517f08c379a0000000000000000000000000000000000000000000000000000000008152600401610cb290611b77565b60405180910390fd5b5f73ffffffffffffffffffffffffffffffffffffffff16866003015f9054906101000a900473ffffffffffffffffffffffffffffffffffffffff1673ffffffffffffffffffffffffffffffffffffffff1614610de2575f866003015f9054906101000a900473ffffffffffffffffffffffffffffffffffffffff1673ffffffffffffffffffffffffffffffffffffffff1685604051610d5990611ab1565b5f6040518083038185875af1925050503d805f8114610d93576040519150601f19603f3d011682016040523d82523d5f602084013e610d98565b606091505b5050905080610ddc576040517f08c379a0000000000000000000000000000000000000000000000000000000008152600401610dd390611bdf565b60405180910390fd5b50610eae565b5f865f015f9054906101000a900473ffffffffffffffffffffffffffffffffffffffff1673ffffffffffffffffffffffffffffffffffffffff1685604051610e2990611ab1565b5f6040518083038185875af1925050503d805f8114610e63576040519150601f19603f3d011682016040523d82523d5f602084013e610e68565b606091505b5050905080610eac576040517f08c379a0000000000000000000000000000000000000000000000000000000008152600401610ea390611c47565b60405180910390fd5b505b856002015f9054906101000a900473ffffffffffffffffffffffffffffffffffffffff1673ffffffffffffffffffffffffffffffffffffffff16866001015f9054906101000a900473ffffffffffffffffffffffffffffffffffffffff1673ffffffffffffffffffffffffffffffffffffffff16887f858c3e1663679c038931c4456e778cf3e6a2be1657a2fc72a72aef46d3c86fc0888789604051610f5693929190611c65565b60405180910390a450505050505050565b5f5ffd5b5f5ffd5b5f819050919050565b610f8181610f6f565b8114610f8b575f5ffd5b50565b5f81359050610f9c81610f78565b92915050565b5f60208284031215610fb757610fb6610f67565b5b5f610fc484828501610f8e565b91505092915050565b5f73ffffffffffffffffffffffffffffffffffffffff82169050919050565b5f610ff682610fcd565b9050919050565b61100681610fec565b82525050565b5f81519050919050565b5f82825260208201905092915050565b8281835e5f83830152505050565b5f601f19601f8301169050919050565b5f61104e8261100c565b6110588185611016565b9350611068818560208601611026565b61107181611034565b840191505092915050565b61108581610f6f565b82525050565b5f8115159050919050565b61109f8161108b565b82525050565b5f610100820190506110b95f83018b610ffd565b6110c6602083018a610ffd565b6110d36040830189610ffd565b6110e06060830188610ffd565b81810360808301526110f28187611044565b905061110160a083018661107c565b61110e60c0830185611096565b61111b60e0830184611096565b9998505050505050505050565b5f60208201905061113b5f830184610ffd565b92915050565b5f6020820190506111545f83018461107c565b92915050565b61116381610fec565b811461116d575f5ffd5b50565b5f8135905061117e8161115a565b92915050565b5f5f6040838503121561119a57611199610f67565b5b5f6111a785828601610f8e565b92505060206111b885828601611170565b9150509250929050565b5f5ffd5b5f5ffd5b5f5ffd5b5f5f83601f8401126111e3576111e26111c2565b5b8235905067ffffffffffffffff811115611200576111ff6111c6565b5b60208301915083600182028301111561121c5761121b6111ca565b5b9250929050565b5f5f5f6040848603121561123a57611239610f67565b5b5f84013567ffffffffffffffff81111561125757611256610f6b565b5b611263868287016111ce565b9350935050602061127686828701611170565b9150509250925092565b7f4e487b71000000000000000000000000000000000000000000000000000000005f52602260045260245ffd5b5f60028204905060018216806112c457607f821691505b6020821081036112d7576112d6611280565b5b50919050565b7f4a6f62206e6f742066756e6465640000000000000000000000000000000000005f82015250565b5f611311600e83611016565b915061131c826112dd565b602082019050919050565b5f6020820190508181035f83015261133e81611305565b9050919050565b7f416c726561647920636f6d706c657465640000000000000000000000000000005f82015250565b5f611379601183611016565b915061138482611345565b602082019050919050565b5f6020820190508181035f8301526113a68161136d565b9050919050565b7f44726f6e6520616c72656164792061737369676e6564000000000000000000005f82015250565b5f6113e1601683611016565b91506113ec826113ad565b602082019050919050565b5f6020820190508181035f83015261140e816113d5565b9050919050565b7f4d7573742066756e64206a6f62000000000000000000000000000000000000005f82015250565b5f611449600d83611016565b915061145482611415565b602082019050919050565b5f6020820190508181035f8301526114768161143d565b9050919050565b7f526563697069656e742063616e6e6f74206265207a65726f20616464726573735f82015250565b5f6114b1602083611016565b91506114bc8261147d565b602082019050919050565b5f6020820190508181035f8301526114de816114a5565b9050919050565b7f526563697069656e742063616e6e6f742062652073656e6465720000000000005f82015250565b5f611519601a83611016565b9150611524826114e5565b602082019050919050565b5f6020820190508181035f8301526115468161150d565b9050919050565b7f4d696e696d756d20302e303031205345492072657175697265640000000000005f82015250565b5f611581601a83611016565b915061158c8261154d565b602082019050919050565b5f6020820190508181035f8301526115ae81611575565b9050919050565b7f4e487b71000000000000000000000000000000000000000000000000000000005f52601160045260245ffd5b5f6115ec82610f6f565b91507fffffffffffffffffffffffffffffffffffffffffffffffffffffffffffffffff820361161e5761161d6115b5565b5b600182019050919050565b7f4e487b71000000000000000000000000000000000000000000000000000000005f52604160045260245ffd5b5f819050815f5260205f209050919050565b5f6020601f8301049050919050565b5f82821b905092915050565b5f600883026116b27fffffffffffffffffffffffffffffffffffffffffffffffffffffffffffffffff82611677565b6116bc8683611677565b95508019841693508086168417925050509392505050565b5f819050919050565b5f6116f76116f26116ed84610f6f565b6116d4565b610f6f565b9050919050565b5f819050919050565b611710836116dd565b61172461171c826116fe565b848454611683565b825550505050565b5f5f905090565b61173b61172c565b611746818484611707565b505050565b5b818110156117695761175e5f82611733565b60018101905061174c565b5050565b601f8211156117ae5761177f81611656565b61178884611668565b81016020851015611797578190505b6117ab6117a385611668565b83018261174b565b50505b505050565b5f82821c905092915050565b5f6117ce5f19846008026117b3565b1980831691505092915050565b5f6117e683836117bf565b9150826002028217905092915050565b6117ff8261100c565b67ffffffffffffffff81111561181857611817611629565b5b61182282546112ad565b61182d82828561176d565b5f60209050601f83116001811461185e575f841561184c578287015190505b61185685826117db565b8655506118bd565b601f19841661186c86611656565b5f5b828110156118935784890151825560018201915060208501945060208101905061186e565b868310156118b057848901516118ac601f8916826117bf565b8355505b6001600288020188555050505b505050505050565b828183375f83830152505050565b5f6118de8385611016565b93506118eb8385846118c5565b6118f483611034565b840190509392505050565b5f6080820190508181035f8301526119188187896118d3565b90506119276020830186610ffd565b6119346040830185610ffd565b611941606083018461107c565b9695505050505050565b7f4f6e6c7920706f737465722063616e20636f6e6669726d0000000000000000005f82015250565b5f61197f601783611016565b915061198a8261194b565b602082019050919050565b5f6020820190508181035f8301526119ac81611973565b9050919050565b5f6119bd82610f6f565b91506119c883610f6f565b92508282026119d681610f6f565b915082820484148315176119ed576119ec6115b5565b5b5092915050565b7f4e487b71000000000000000000000000000000000000000000000000000000005f52601260045260245ffd5b5f611a2b82610f6f565b9150611a3683610f6f565b925082611a4657611a456119f4565b5b828204905092915050565b5f611a5b82610f6f565b9150611a6683610f6f565b9250828203905081811115611a7e57611a7d6115b5565b5b92915050565b5f81905092915050565b50565b5f611a9c5f83611a84565b9150611aa782611a8e565b5f82019050919050565b5f611abb82611a91565b9150819050919050565b7f4661696c656420746f2073656e6420746f20726563697069656e7400000000005f82015250565b5f611af9601b83611016565b9150611b0482611ac5565b602082019050919050565b5f6020820190508181035f830152611b2681611aed565b9050919050565b7f4661696c656420746f2073656e6420746f206665652077616c6c6574000000005f82015250565b5f611b61601c83611016565b9150611b6c82611b2d565b602082019050919050565b5f6020820190508181035f830152611b8e81611b55565b9050919050565b7f4661696c656420746f2073656e6420746f2064726f6e652077616c6c657400005f82015250565b5f611bc9601e83611016565b9150611bd482611b95565b602082019050919050565b5f6020820190508181035f830152611bf681611bbd565b9050919050565b7f4661696c656420746f20726566756e642073656e6465720000000000000000005f82015250565b5f611c31601783611016565b9150611c3c82611bfd565b602082019050919050565b5f6020820190508181035f830152611c5e81611c25565b9050919050565b5f606082019050611c785f83018661107c565b611c85602083018561107c565b611c92604083018461107c565b94935050505056fea2646970667358221220a73a5623cb3ba6f63e1dcebb6ed2c1156502cedf16595391b098e1791c2c164b64736f6c634300081e0033",
  "linkReferences": {},
  "deployedLinkReferences": {}
}